{
  "_format": "hh-sol-artifact-1",
  "contractName": "Marketplace",
  "sourceName": "contracts/Marketplace.sol",
  "abi": [
    {
      "inputs": [],
      "stateMutability": "nonpayable",
      "type": "constructor"
    },
    {
      "anonymous": false,
      "inputs": [
        {
          "indexed": true,
          "internalType": "address",
          "name": "owner",
          "type": "address"
        },
        {
          "indexed": true,
          "internalType": "address",
          "name": "approved",
          "type": "address"
        },
        {
          "indexed": true,
          "internalType": "uint256",
          "name": "tokenId",
          "type": "uint256"
        }
      ],
      "name": "Approval",
      "type": "event"
    },
    {
      "anonymous": false,
      "inputs": [
        {
          "indexed": true,
          "internalType": "address",
          "name": "owner",
          "type": "address"
        },
        {
          "indexed": true,
          "internalType": "address",
          "name": "operator",
          "type": "address"
        },
        {
          "indexed": false,
          "internalType": "bool",
          "name": "approved",
          "type": "bool"
        }
      ],
      "name": "ApprovalForAll",
      "type": "event"
    },
    {
      "anonymous": false,
      "inputs": [
        {
          "indexed": true,
          "internalType": "address",
          "name": "from",
          "type": "address"
        },
        {
          "indexed": true,
          "internalType": "address",
          "name": "to",
          "type": "address"
        },
        {
          "indexed": true,
          "internalType": "uint256",
          "name": "tokenId",
          "type": "uint256"
        }
      ],
      "name": "Transfer",
      "type": "event"
    },
    {
      "inputs": [
        {
          "internalType": "address",
          "name": "to",
          "type": "address"
        },
        {
          "internalType": "uint256",
          "name": "tokenId",
          "type": "uint256"
        }
      ],
      "name": "approve",
      "outputs": [],
      "stateMutability": "nonpayable",
      "type": "function"
    },
    {
      "inputs": [
        {
          "internalType": "address",
          "name": "owner",
          "type": "address"
        }
      ],
      "name": "balanceOf",
      "outputs": [
        {
          "internalType": "uint256",
          "name": "",
          "type": "uint256"
        }
      ],
      "stateMutability": "view",
      "type": "function"
    },
    {
      "inputs": [
        {
          "internalType": "uint256",
          "name": "tokenId",
          "type": "uint256"
        }
      ],
      "name": "buyNFT",
      "outputs": [],
      "stateMutability": "payable",
      "type": "function"
    },
    {
      "inputs": [
        {
          "internalType": "string",
          "name": "tokenURI",
          "type": "string"
        },
        {
          "internalType": "uint256",
          "name": "price",
          "type": "uint256"
        }
      ],
      "name": "createToken",
      "outputs": [
        {
          "internalType": "uint256",
          "name": "",
          "type": "uint256"
        }
      ],
      "stateMutability": "payable",
      "type": "function"
    },
    {
      "inputs": [],
      "name": "fetchAllNFTs",
      "outputs": [
        {
          "components": [
            {
              "internalType": "uint256",
              "name": "tokenId",
              "type": "uint256"
            },
            {
              "internalType": "address payable",
              "name": "owner",
              "type": "address"
            },
            {
              "internalType": "address payable",
              "name": "seller",
              "type": "address"
            },
            {
              "internalType": "uint256",
              "name": "price",
              "type": "uint256"
            },
            {
              "internalType": "bool",
              "name": "isListed",
              "type": "bool"
            },
            {
              "internalType": "bool",
              "name": "isApproved",
              "type": "bool"
            }
          ],
          "internalType": "struct Marketplace.liveToken[]",
          "name": "",
          "type": "tuple[]"
        }
      ],
      "stateMutability": "view",
      "type": "function"
    },
    {
      "inputs": [],
      "name": "fetchMyNFTs",
      "outputs": [
        {
          "components": [
            {
              "internalType": "uint256",
              "name": "tokenId",
              "type": "uint256"
            },
            {
              "internalType": "address payable",
              "name": "owner",
              "type": "address"
            },
            {
              "internalType": "address payable",
              "name": "seller",
              "type": "address"
            },
            {
              "internalType": "uint256",
              "name": "price",
              "type": "uint256"
            },
            {
              "internalType": "bool",
              "name": "isListed",
              "type": "bool"
            },
            {
              "internalType": "bool",
              "name": "isApproved",
              "type": "bool"
            }
          ],
          "internalType": "struct Marketplace.liveToken[]",
          "name": "",
          "type": "tuple[]"
        }
      ],
      "stateMutability": "view",
      "type": "function"
    },
    {
      "inputs": [
        {
          "internalType": "uint256",
          "name": "tokenId",
          "type": "uint256"
        }
      ],
      "name": "getApproved",
      "outputs": [
        {
          "internalType": "address",
          "name": "",
          "type": "address"
        }
      ],
      "stateMutability": "view",
      "type": "function"
    },
    {
      "inputs": [],
      "name": "getCurrentId",
      "outputs": [
        {
          "internalType": "uint256",
          "name": "",
          "type": "uint256"
        }
      ],
      "stateMutability": "view",
      "type": "function"
    },
    {
      "inputs": [
        {
          "internalType": "uint256",
          "name": "tokenId",
          "type": "uint256"
        }
      ],
      "name": "getListedForTokenId",
      "outputs": [
        {
          "components": [
            {
              "internalType": "uint256",
              "name": "tokenId",
              "type": "uint256"
            },
            {
              "internalType": "address payable",
              "name": "owner",
              "type": "address"
            },
            {
              "internalType": "address payable",
              "name": "seller",
              "type": "address"
            },
            {
              "internalType": "uint256",
              "name": "price",
              "type": "uint256"
            },
            {
              "internalType": "bool",
              "name": "isListed",
              "type": "bool"
            },
            {
              "internalType": "bool",
              "name": "isApproved",
              "type": "bool"
            }
          ],
          "internalType": "struct Marketplace.liveToken",
          "name": "",
          "type": "tuple"
        }
      ],
      "stateMutability": "view",
      "type": "function"
    },
    {
      "inputs": [],
      "name": "getPlatformFee",
      "outputs": [
        {
          "internalType": "uint256",
          "name": "",
          "type": "uint256"
        }
      ],
      "stateMutability": "view",
      "type": "function"
    },
    {
      "inputs": [
        {
          "internalType": "address",
          "name": "owner",
          "type": "address"
        },
        {
          "internalType": "address",
          "name": "operator",
          "type": "address"
        }
      ],
      "name": "isApprovedForAll",
      "outputs": [
        {
          "internalType": "bool",
          "name": "",
          "type": "bool"
        }
      ],
      "stateMutability": "view",
      "type": "function"
    },
    {
      "inputs": [
        {
          "internalType": "uint256",
          "name": "tokenId",
          "type": "uint256"
        },
        {
          "internalType": "uint256",
          "name": "price",
          "type": "uint256"
        }
      ],
      "name": "listToken",
      "outputs": [],
      "stateMutability": "nonpayable",
      "type": "function"
    },
    {
      "inputs": [],
      "name": "name",
      "outputs": [
        {
          "internalType": "string",
          "name": "",
          "type": "string"
        }
      ],
      "stateMutability": "view",
      "type": "function"
    },
    {
      "inputs": [
        {
          "internalType": "uint256",
          "name": "tokenId",
          "type": "uint256"
        }
      ],
      "name": "ownerOf",
      "outputs": [
        {
          "internalType": "address",
          "name": "",
          "type": "address"
        }
      ],
      "stateMutability": "view",
      "type": "function"
    },
    {
      "inputs": [
        {
          "internalType": "address",
          "name": "from",
          "type": "address"
        },
        {
          "internalType": "address",
          "name": "to",
          "type": "address"
        },
        {
          "internalType": "uint256",
          "name": "tokenId",
          "type": "uint256"
        }
      ],
      "name": "safeTransferFrom",
      "outputs": [],
      "stateMutability": "nonpayable",
      "type": "function"
    },
    {
      "inputs": [
        {
          "internalType": "address",
          "name": "from",
          "type": "address"
        },
        {
          "internalType": "address",
          "name": "to",
          "type": "address"
        },
        {
          "internalType": "uint256",
          "name": "tokenId",
          "type": "uint256"
        },
        {
          "internalType": "bytes",
          "name": "data",
          "type": "bytes"
        }
      ],
      "name": "safeTransferFrom",
      "outputs": [],
      "stateMutability": "nonpayable",
      "type": "function"
    },
    {
      "inputs": [
        {
          "internalType": "address",
          "name": "operator",
          "type": "address"
        },
        {
          "internalType": "bool",
          "name": "approved",
          "type": "bool"
        }
      ],
      "name": "setApprovalForAll",
      "outputs": [],
      "stateMutability": "nonpayable",
      "type": "function"
    },
    {
      "inputs": [
        {
          "internalType": "bytes4",
          "name": "interfaceId",
          "type": "bytes4"
        }
      ],
      "name": "supportsInterface",
      "outputs": [
        {
          "internalType": "bool",
          "name": "",
          "type": "bool"
        }
      ],
      "stateMutability": "view",
      "type": "function"
    },
    {
      "inputs": [],
      "name": "symbol",
      "outputs": [
        {
          "internalType": "string",
          "name": "",
          "type": "string"
        }
      ],
      "stateMutability": "view",
      "type": "function"
    },
    {
      "inputs": [
        {
          "internalType": "uint256",
          "name": "tokenId",
          "type": "uint256"
        }
      ],
      "name": "tokenURI",
      "outputs": [
        {
          "internalType": "string",
          "name": "",
          "type": "string"
        }
      ],
      "stateMutability": "view",
      "type": "function"
    },
    {
      "inputs": [
        {
          "internalType": "address",
          "name": "from",
          "type": "address"
        },
        {
          "internalType": "address",
          "name": "to",
          "type": "address"
        },
        {
          "internalType": "uint256",
          "name": "tokenId",
          "type": "uint256"
        }
      ],
      "name": "transferFrom",
      "outputs": [],
      "stateMutability": "nonpayable",
      "type": "function"
    },
    {
      "inputs": [
        {
          "internalType": "uint256",
          "name": "tokenId",
          "type": "uint256"
        }
      ],
      "name": "unListNFT",
      "outputs": [],
      "stateMutability": "nonpayable",
      "type": "function"
    },
    {
      "inputs": [
        {
          "internalType": "uint256",
          "name": "_platformFee",
          "type": "uint256"
        }
      ],
      "name": "updatePlatformFee",
      "outputs": [],
      "stateMutability": "nonpayable",
      "type": "function"
    }
  ],
  "bytecode": "0x6080604052655af3107a4000600a553480156200001b57600080fd5b506040518060400160405280600681526020017f526f636b657400000000000000000000000000000000000000000000000000008152506040518060400160405280600381526020017f524b54000000000000000000000000000000000000000000000000000000000081525081600090816200009991906200036f565b508060019081620000ab91906200036f565b50505033600760006101000a81548173ffffffffffffffffffffffffffffffffffffffff021916908373ffffffffffffffffffffffffffffffffffffffff16021790555062000456565b600081519050919050565b7f4e487b7100000000000000000000000000000000000000000000000000000000600052604160045260246000fd5b7f4e487b7100000000000000000000000000000000000000000000000000000000600052602260045260246000fd5b600060028204905060018216806200017757607f821691505b6020821081036200018d576200018c6200012f565b5b50919050565b60008190508160005260206000209050919050565b60006020601f8301049050919050565b600082821b905092915050565b600060088302620001f77fffffffffffffffffffffffffffffffffffffffffffffffffffffffffffffffff82620001b8565b620002038683620001b8565b95508019841693508086168417925050509392505050565b6000819050919050565b6000819050919050565b6000620002506200024a62000244846200021b565b62000225565b6200021b565b9050919050565b6000819050919050565b6200026c836200022f565b620002846200027b8262000257565b848454620001c5565b825550505050565b600090565b6200029b6200028c565b620002a881848462000261565b505050565b5b81811015620002d057620002c460008262000291565b600181019050620002ae565b5050565b601f8211156200031f57620002e98162000193565b620002f484620001a8565b8101602085101562000304578190505b6200031c6200031385620001a8565b830182620002ad565b50505b505050565b600082821c905092915050565b6000620003446000198460080262000324565b1980831691505092915050565b60006200035f838362000331565b9150826002028217905092915050565b6200037a82620000f5565b67ffffffffffffffff81111562000396576200039562000100565b5b620003a282546200015e565b620003af828285620002d4565b600060209050601f831160018114620003e75760008415620003d2578287015190505b620003de858262000351565b8655506200044e565b601f198416620003f78662000193565b60005b828110156200042157848901518255600182019150602085019450602081019050620003fa565b868310156200044157848901516200043d601f89168262000331565b8355505b6001600288020188555050505b505050505050565b61429380620004666000396000f3fe6080604052600436106101405760003560e01c80636c143862116100b657806398c3df161161006f57806398c3df1614610454578063a22cb46514610491578063aa0b5988146104ba578063b88d4fde146104e3578063c87b56dd1461050c578063e985e9c51461054957610140565b80636c1438621461033d5780636ea8bc101461036857806370a082311461039357806372b3b620146103d057806375c1631d1461040057806395d89b411461042957610140565b8063202e374011610108578063202e37401461023c57806323b872dd146102675780633f0e317b1461029057806342842e0e146102bb57806351ed8288146102e45780636352211e1461030057610140565b806301ffc9a71461014557806306fdde0314610182578063081812fc146101ad578063095ea7b3146101ea5780630ca2f16814610213575b600080fd5b34801561015157600080fd5b5061016c60048036038101906101679190612a95565b610586565b6040516101799190612add565b60405180910390f35b34801561018e57600080fd5b50610197610668565b6040516101a49190612b88565b60405180910390f35b3480156101b957600080fd5b506101d460048036038101906101cf9190612be0565b6106fa565b6040516101e19190612c4e565b60405180910390f35b3480156101f657600080fd5b50610211600480360381019061020c9190612c95565b610740565b005b34801561021f57600080fd5b5061023a60048036038101906102359190612be0565b610857565b005b34801561024857600080fd5b50610251610997565b60405161025e9190612e3e565b60405180910390f35b34801561027357600080fd5b5061028e60048036038101906102899190612e60565b610d8f565b005b34801561029c57600080fd5b506102a5610def565b6040516102b29190612e3e565b60405180910390f35b3480156102c757600080fd5b506102e260048036038101906102dd9190612e60565b610fd9565b005b6102fe60048036038101906102f99190612be0565b610ff9565b005b34801561030c57600080fd5b5061032760048036038101906103229190612be0565b611308565b6040516103349190612c4e565b60405180910390f35b34801561034957600080fd5b5061035261138e565b60405161035f9190612ec2565b60405180910390f35b34801561037457600080fd5b5061037d61139f565b60405161038a9190612ec2565b60405180910390f35b34801561039f57600080fd5b506103ba60048036038101906103b59190612edd565b6113a9565b6040516103c79190612ec2565b60405180910390f35b6103ea60048036038101906103e5919061303f565b611460565b6040516103f79190612ec2565b60405180910390f35b34801561040c57600080fd5b506104276004803603810190610422919061309b565b611529565b005b34801561043557600080fd5b5061043e61168f565b60405161044b9190612b88565b60405180910390f35b34801561046057600080fd5b5061047b60048036038101906104769190612be0565b611721565b6040516104889190613156565b60405180910390f35b34801561049d57600080fd5b506104b860048036038101906104b3919061319d565b611844565b005b3480156104c657600080fd5b506104e160048036038101906104dc9190612be0565b61185a565b005b3480156104ef57600080fd5b5061050a6004803603810190610505919061327e565b6118f4565b005b34801561051857600080fd5b50610533600480360381019061052e9190612be0565b611956565b6040516105409190612b88565b60405180910390f35b34801561055557600080fd5b50610570600480360381019061056b9190613301565b611a68565b60405161057d9190612add565b60405180910390f35b60007f80ac58cd000000000000000000000000000000000000000000000000000000007bffffffffffffffffffffffffffffffffffffffffffffffffffffffff1916827bffffffffffffffffffffffffffffffffffffffffffffffffffffffff1916148061065157507f5b5e139f000000000000000000000000000000000000000000000000000000007bffffffffffffffffffffffffffffffffffffffffffffffffffffffff1916827bffffffffffffffffffffffffffffffffffffffffffffffffffffffff1916145b80610661575061066082611afc565b5b9050919050565b60606000805461067790613370565b80601f01602080910402602001604051908101604052809291908181526020018280546106a390613370565b80156106f05780601f106106c5576101008083540402835291602001916106f0565b820191906000526020600020905b8154815290600101906020018083116106d357829003601f168201915b5050505050905090565b600061070582611b66565b6004600083815260200190815260200160002060009054906101000a900473ffffffffffffffffffffffffffffffffffffffff169050919050565b600061074b82611308565b90508073ffffffffffffffffffffffffffffffffffffffff168373ffffffffffffffffffffffffffffffffffffffff16036107bb576040517f08c379a00000000000000000000000000000000000000000000000000000000081526004016107b290613413565b60405180910390fd5b8073ffffffffffffffffffffffffffffffffffffffff166107da611bb1565b73ffffffffffffffffffffffffffffffffffffffff161480610809575061080881610803611bb1565b611a68565b5b610848576040517f08c379a000000000000000000000000000000000000000000000000000000000815260040161083f906134a5565b60405180910390fd5b6108528383611bb9565b505050565b3373ffffffffffffffffffffffffffffffffffffffff16600b600083815260200190815260200160002060010160009054906101000a900473ffffffffffffffffffffffffffffffffffffffff1673ffffffffffffffffffffffffffffffffffffffff16146108fb576040517f08c379a00000000000000000000000000000000000000000000000000000000081526004016108f290613537565b60405180910390fd5b60011515600b600083815260200190815260200160002060040160009054906101000a900460ff16151514610965576040517f08c379a000000000000000000000000000000000000000000000000000000000815260040161095c906135c9565b60405180910390fd5b6000600b600083815260200190815260200160002060040160006101000a81548160ff02191690831515021790555050565b606060006109a56008611c72565b90506000806000805b84811015610ac7573373ffffffffffffffffffffffffffffffffffffffff16600b60006001846109de9190613618565b815260200190815260200160002060010160009054906101000a900473ffffffffffffffffffffffffffffffffffffffff1673ffffffffffffffffffffffffffffffffffffffff161480610a9f57503373ffffffffffffffffffffffffffffffffffffffff16600b6000600184610a559190613618565b815260200190815260200160002060020160009054906101000a900473ffffffffffffffffffffffffffffffffffffffff1673ffffffffffffffffffffffffffffffffffffffff16145b15610ab457600184610ab19190613618565b93505b8080610abf9061364c565b9150506109ae565b5060008367ffffffffffffffff811115610ae457610ae3612f14565b5b604051908082528060200260200182016040528015610b1d57816020015b610b0a6129c3565b815260200190600190039081610b025790505b50905060005b85811015610d83573373ffffffffffffffffffffffffffffffffffffffff16600b6000600184610b539190613618565b815260200190815260200160002060010160009054906101000a900473ffffffffffffffffffffffffffffffffffffffff1673ffffffffffffffffffffffffffffffffffffffff161480610c1457503373ffffffffffffffffffffffffffffffffffffffff16600b6000600184610bca9190613618565b815260200190815260200160002060020160009054906101000a900473ffffffffffffffffffffffffffffffffffffffff1673ffffffffffffffffffffffffffffffffffffffff16145b15610d7057600181610c269190613618565b92506000600b60008581526020019081526020016000209050806040518060c0016040529081600082015481526020016001820160009054906101000a900473ffffffffffffffffffffffffffffffffffffffff1673ffffffffffffffffffffffffffffffffffffffff1673ffffffffffffffffffffffffffffffffffffffff1681526020016002820160009054906101000a900473ffffffffffffffffffffffffffffffffffffffff1673ffffffffffffffffffffffffffffffffffffffff1673ffffffffffffffffffffffffffffffffffffffff168152602001600382015481526020016004820160009054906101000a900460ff161515151581526020016004820160019054906101000a900460ff161515151581525050838681518110610d5457610d53613694565b5b6020026020010181905250600185610d6c9190613618565b9450505b8080610d7b9061364c565b915050610b23565b50809550505050505090565b610da0610d9a611bb1565b82611c80565b610ddf576040517f08c379a0000000000000000000000000000000000000000000000000000000008152600401610dd690613735565b60405180910390fd5b610dea838383611d15565b505050565b60606000610dfd6008611c72565b905060008167ffffffffffffffff811115610e1b57610e1a612f14565b5b604051908082528060200260200182016040528015610e5457816020015b610e416129c3565b815260200190600190039081610e395790505b5090506000805b83811015610fcf576000600182610e729190613618565b90506000600b60008381526020019081526020016000209050806040518060c0016040529081600082015481526020016001820160009054906101000a900473ffffffffffffffffffffffffffffffffffffffff1673ffffffffffffffffffffffffffffffffffffffff1673ffffffffffffffffffffffffffffffffffffffff1681526020016002820160009054906101000a900473ffffffffffffffffffffffffffffffffffffffff1673ffffffffffffffffffffffffffffffffffffffff1673ffffffffffffffffffffffffffffffffffffffff168152602001600382015481526020016004820160009054906101000a900460ff161515151581526020016004820160019054906101000a900460ff161515151581525050858581518110610fa057610f9f613694565b5b6020026020010181905250600184610fb89190613618565b935050508080610fc79061364c565b915050610e5b565b5081935050505090565b610ff4838383604051806020016040528060008152506118f4565b505050565b6000600b6000838152602001908152602001600020600301549050803414611056576040517f08c379a000000000000000000000000000000000000000000000000000000000815260040161104d906137c7565b60405180910390fd5b60011515600b600084815260200190815260200160002060040160009054906101000a900460ff161515146110c0576040517f08c379a00000000000000000000000000000000000000000000000000000000081526004016110b790613833565b60405180910390fd5b6000600b600084815260200190815260200160002060020160009054906101000a900473ffffffffffffffffffffffffffffffffffffffff169050611105600961200e565b611110303385611d15565b61111a3084610740565b6001600b600085815260200190815260200160002060040160016101000a81548160ff021916908315150217905550600760009054906101000a900473ffffffffffffffffffffffffffffffffffffffff1673ffffffffffffffffffffffffffffffffffffffff166108fc600a549081150290604051600060405180830381858888f193505050501580156111b3573d6000803e3d6000fd5b508073ffffffffffffffffffffffffffffffffffffffff166108fc349081150290604051600060405180830381858888f193505050501580156111fa573d6000803e3d6000fd5b5033600b600085815260200190815260200160002060010160006101000a81548173ffffffffffffffffffffffffffffffffffffffff021916908373ffffffffffffffffffffffffffffffffffffffff16021790555033600b600085815260200190815260200160002060020160006101000a81548173ffffffffffffffffffffffffffffffffffffffff021916908373ffffffffffffffffffffffffffffffffffffffff1602179055506000600b600085815260200190815260200160002060040160006101000a81548160ff0219169083151502179055506000600b600085815260200190815260200160002060040160016101000a81548160ff021916908315150217905550505050565b60008061131483612024565b9050600073ffffffffffffffffffffffffffffffffffffffff168173ffffffffffffffffffffffffffffffffffffffff1603611385576040517f08c379a000000000000000000000000000000000000000000000000000000000815260040161137c9061389f565b60405180910390fd5b80915050919050565b600061139a6008611c72565b905090565b6000600a54905090565b60008073ffffffffffffffffffffffffffffffffffffffff168273ffffffffffffffffffffffffffffffffffffffff1603611419576040517f08c379a000000000000000000000000000000000000000000000000000000000815260040161141090613931565b60405180910390fd5b600360008373ffffffffffffffffffffffffffffffffffffffff1673ffffffffffffffffffffffffffffffffffffffff168152602001908152602001600020549050919050565b6000600a5434146114a6576040517f08c379a000000000000000000000000000000000000000000000000000000000815260040161149d906139c3565b60405180910390fd5b600082116114e9576040517f08c379a00000000000000000000000000000000000000000000000000000000081526004016114e090613a2f565b60405180910390fd5b6114f3600861200e565b60006114ff6008611c72565b905061150b3382612061565b611515818561207f565b61151f8184611529565b8091505092915050565b6040518060c001604052808381526020013073ffffffffffffffffffffffffffffffffffffffff1681526020013373ffffffffffffffffffffffffffffffffffffffff16815260200182815260200160011515815260200160001515815250600b60008481526020019081526020016000206000820151816000015560208201518160010160006101000a81548173ffffffffffffffffffffffffffffffffffffffff021916908373ffffffffffffffffffffffffffffffffffffffff16021790555060408201518160020160006101000a81548173ffffffffffffffffffffffffffffffffffffffff021916908373ffffffffffffffffffffffffffffffffffffffff1602179055506060820151816003015560808201518160040160006101000a81548160ff02191690831515021790555060a08201518160040160016101000a81548160ff02191690831515021790555090505061168b333084611d15565b5050565b60606001805461169e90613370565b80601f01602080910402602001604051908101604052809291908181526020018280546116ca90613370565b80156117175780601f106116ec57610100808354040283529160200191611717565b820191906000526020600020905b8154815290600101906020018083116116fa57829003601f168201915b5050505050905090565b6117296129c3565b600b60008381526020019081526020016000206040518060c0016040529081600082015481526020016001820160009054906101000a900473ffffffffffffffffffffffffffffffffffffffff1673ffffffffffffffffffffffffffffffffffffffff1673ffffffffffffffffffffffffffffffffffffffff1681526020016002820160009054906101000a900473ffffffffffffffffffffffffffffffffffffffff1673ffffffffffffffffffffffffffffffffffffffff1673ffffffffffffffffffffffffffffffffffffffff168152602001600382015481526020016004820160009054906101000a900460ff161515151581526020016004820160019054906101000a900460ff1615151515815250509050919050565b61185661184f611bb1565b83836120ec565b5050565b600760009054906101000a900473ffffffffffffffffffffffffffffffffffffffff1673ffffffffffffffffffffffffffffffffffffffff163373ffffffffffffffffffffffffffffffffffffffff16146118ea576040517f08c379a00000000000000000000000000000000000000000000000000000000081526004016118e190613ac1565b60405180910390fd5b80600a8190555050565b6119056118ff611bb1565b83611c80565b611944576040517f08c379a000000000000000000000000000000000000000000000000000000000815260040161193b90613735565b60405180910390fd5b61195084848484612258565b50505050565b606061196182611b66565b600060066000848152602001908152602001600020805461198190613370565b80601f01602080910402602001604051908101604052809291908181526020018280546119ad90613370565b80156119fa5780601f106119cf576101008083540402835291602001916119fa565b820191906000526020600020905b8154815290600101906020018083116119dd57829003601f168201915b505050505090506000611a0b6122b4565b90506000815103611a20578192505050611a63565b600082511115611a55578082604051602001611a3d929190613b1d565b60405160208183030381529060405292505050611a63565b611a5e846122cb565b925050505b919050565b6000600560008473ffffffffffffffffffffffffffffffffffffffff1673ffffffffffffffffffffffffffffffffffffffff16815260200190815260200160002060008373ffffffffffffffffffffffffffffffffffffffff1673ffffffffffffffffffffffffffffffffffffffff16815260200190815260200160002060009054906101000a900460ff16905092915050565b60007f01ffc9a7000000000000000000000000000000000000000000000000000000007bffffffffffffffffffffffffffffffffffffffffffffffffffffffff1916827bffffffffffffffffffffffffffffffffffffffffffffffffffffffff1916149050919050565b611b6f81612333565b611bae576040517f08c379a0000000000000000000000000000000000000000000000000000000008152600401611ba59061389f565b60405180910390fd5b50565b600033905090565b816004600083815260200190815260200160002060006101000a81548173ffffffffffffffffffffffffffffffffffffffff021916908373ffffffffffffffffffffffffffffffffffffffff160217905550808273ffffffffffffffffffffffffffffffffffffffff16611c2c83611308565b73ffffffffffffffffffffffffffffffffffffffff167f8c5be1e5ebec7d5bd14f71427d1e84f3dd0314c0f7b2291e5b200ac8c7c3b92560405160405180910390a45050565b600081600001549050919050565b600080611c8c83611308565b90508073ffffffffffffffffffffffffffffffffffffffff168473ffffffffffffffffffffffffffffffffffffffff161480611cce5750611ccd8185611a68565b5b80611d0c57508373ffffffffffffffffffffffffffffffffffffffff16611cf4846106fa565b73ffffffffffffffffffffffffffffffffffffffff16145b91505092915050565b8273ffffffffffffffffffffffffffffffffffffffff16611d3582611308565b73ffffffffffffffffffffffffffffffffffffffff1614611d8b576040517f08c379a0000000000000000000000000000000000000000000000000000000008152600401611d8290613bb3565b60405180910390fd5b600073ffffffffffffffffffffffffffffffffffffffff168273ffffffffffffffffffffffffffffffffffffffff1603611dfa576040517f08c379a0000000000000000000000000000000000000000000000000000000008152600401611df190613c45565b60405180910390fd5b611e078383836001612374565b8273ffffffffffffffffffffffffffffffffffffffff16611e2782611308565b73ffffffffffffffffffffffffffffffffffffffff1614611e7d576040517f08c379a0000000000000000000000000000000000000000000000000000000008152600401611e7490613bb3565b60405180910390fd5b6004600082815260200190815260200160002060006101000a81549073ffffffffffffffffffffffffffffffffffffffff02191690556001600360008573ffffffffffffffffffffffffffffffffffffffff1673ffffffffffffffffffffffffffffffffffffffff168152602001908152602001600020600082825403925050819055506001600360008473ffffffffffffffffffffffffffffffffffffffff1673ffffffffffffffffffffffffffffffffffffffff16815260200190815260200160002060008282540192505081905550816002600083815260200190815260200160002060006101000a81548173ffffffffffffffffffffffffffffffffffffffff021916908373ffffffffffffffffffffffffffffffffffffffff160217905550808273ffffffffffffffffffffffffffffffffffffffff168473ffffffffffffffffffffffffffffffffffffffff167fddf252ad1be2c89b69c2b068fc378daa952ba7f163c4a11628f55a4df523b3ef60405160405180910390a4612009838383600161237a565b505050565b6001816000016000828254019250508190555050565b60006002600083815260200190815260200160002060009054906101000a900473ffffffffffffffffffffffffffffffffffffffff169050919050565b61207b828260405180602001604052806000815250612380565b5050565b61208882612333565b6120c7576040517f08c379a00000000000000000000000000000000000000000000000000000000081526004016120be90613cd7565b60405180910390fd5b806006600084815260200190815260200160002090816120e79190613ea3565b505050565b8173ffffffffffffffffffffffffffffffffffffffff168373ffffffffffffffffffffffffffffffffffffffff160361215a576040517f08c379a000000000000000000000000000000000000000000000000000000000815260040161215190613fc1565b60405180910390fd5b80600560008573ffffffffffffffffffffffffffffffffffffffff1673ffffffffffffffffffffffffffffffffffffffff16815260200190815260200160002060008473ffffffffffffffffffffffffffffffffffffffff1673ffffffffffffffffffffffffffffffffffffffff16815260200190815260200160002060006101000a81548160ff0219169083151502179055508173ffffffffffffffffffffffffffffffffffffffff168373ffffffffffffffffffffffffffffffffffffffff167f17307eab39ab6107e8899845ad3d59bd9653f200f220920489ca2b5937696c318360405161224b9190612add565b60405180910390a3505050565b612263848484611d15565b61226f848484846123db565b6122ae576040517f08c379a00000000000000000000000000000000000000000000000000000000081526004016122a590614053565b60405180910390fd5b50505050565b606060405180602001604052806000815250905090565b60606122d682611b66565b60006122e06122b4565b90506000815111612300576040518060200160405280600081525061232b565b8061230a84612562565b60405160200161231b929190613b1d565b6040516020818303038152906040525b915050919050565b60008073ffffffffffffffffffffffffffffffffffffffff1661235583612024565b73ffffffffffffffffffffffffffffffffffffffff1614159050919050565b50505050565b50505050565b61238a8383612630565b61239760008484846123db565b6123d6576040517f08c379a00000000000000000000000000000000000000000000000000000000081526004016123cd90614053565b60405180910390fd5b505050565b60006123fc8473ffffffffffffffffffffffffffffffffffffffff1661284d565b15612555578373ffffffffffffffffffffffffffffffffffffffff1663150b7a02612425611bb1565b8786866040518563ffffffff1660e01b815260040161244794939291906140c8565b6020604051808303816000875af192505050801561248357506040513d601f19601f820116820180604052508101906124809190614129565b60015b612505573d80600081146124b3576040519150601f19603f3d011682016040523d82523d6000602084013e6124b8565b606091505b5060008151036124fd576040517f08c379a00000000000000000000000000000000000000000000000000000000081526004016124f490614053565b60405180910390fd5b805181602001fd5b63150b7a0260e01b7bffffffffffffffffffffffffffffffffffffffffffffffffffffffff1916817bffffffffffffffffffffffffffffffffffffffffffffffffffffffff19161491505061255a565b600190505b949350505050565b60606000600161257184612870565b01905060008167ffffffffffffffff8111156125905761258f612f14565b5b6040519080825280601f01601f1916602001820160405280156125c25781602001600182028036833780820191505090505b509050600082602001820190505b600115612625578080600190039150507f3031323334353637383961626364656600000000000000000000000000000000600a86061a8153600a858161261957612618614156565b5b049450600085036125d0575b819350505050919050565b600073ffffffffffffffffffffffffffffffffffffffff168273ffffffffffffffffffffffffffffffffffffffff160361269f576040517f08c379a0000000000000000000000000000000000000000000000000000000008152600401612696906141d1565b60405180910390fd5b6126a881612333565b156126e8576040517f08c379a00000000000000000000000000000000000000000000000000000000081526004016126df9061423d565b60405180910390fd5b6126f6600083836001612374565b6126ff81612333565b1561273f576040517f08c379a00000000000000000000000000000000000000000000000000000000081526004016127369061423d565b60405180910390fd5b6001600360008473ffffffffffffffffffffffffffffffffffffffff1673ffffffffffffffffffffffffffffffffffffffff16815260200190815260200160002060008282540192505081905550816002600083815260200190815260200160002060006101000a81548173ffffffffffffffffffffffffffffffffffffffff021916908373ffffffffffffffffffffffffffffffffffffffff160217905550808273ffffffffffffffffffffffffffffffffffffffff16600073ffffffffffffffffffffffffffffffffffffffff167fddf252ad1be2c89b69c2b068fc378daa952ba7f163c4a11628f55a4df523b3ef60405160405180910390a461284960008383600161237a565b5050565b6000808273ffffffffffffffffffffffffffffffffffffffff163b119050919050565b600080600090507a184f03e93ff9f4daa797ed6e38ed64bf6a1f01000000000000000083106128ce577a184f03e93ff9f4daa797ed6e38ed64bf6a1f01000000000000000083816128c4576128c3614156565b5b0492506040810190505b6d04ee2d6d415b85acef8100000000831061290b576d04ee2d6d415b85acef8100000000838161290157612900614156565b5b0492506020810190505b662386f26fc10000831061293a57662386f26fc1000083816129305761292f614156565b5b0492506010810190505b6305f5e1008310612963576305f5e100838161295957612958614156565b5b0492506008810190505b612710831061298857612710838161297e5761297d614156565b5b0492506004810190505b606483106129ab57606483816129a1576129a0614156565b5b0492506002810190505b600a83106129ba576001810190505b80915050919050565b6040518060c0016040528060008152602001600073ffffffffffffffffffffffffffffffffffffffff168152602001600073ffffffffffffffffffffffffffffffffffffffff168152602001600081526020016000151581526020016000151581525090565b6000604051905090565b600080fd5b600080fd5b60007fffffffff0000000000000000000000000000000000000000000000000000000082169050919050565b612a7281612a3d565b8114612a7d57600080fd5b50565b600081359050612a8f81612a69565b92915050565b600060208284031215612aab57612aaa612a33565b5b6000612ab984828501612a80565b91505092915050565b60008115159050919050565b612ad781612ac2565b82525050565b6000602082019050612af26000830184612ace565b92915050565b600081519050919050565b600082825260208201905092915050565b60005b83811015612b32578082015181840152602081019050612b17565b60008484015250505050565b6000601f19601f8301169050919050565b6000612b5a82612af8565b612b648185612b03565b9350612b74818560208601612b14565b612b7d81612b3e565b840191505092915050565b60006020820190508181036000830152612ba28184612b4f565b905092915050565b6000819050919050565b612bbd81612baa565b8114612bc857600080fd5b50565b600081359050612bda81612bb4565b92915050565b600060208284031215612bf657612bf5612a33565b5b6000612c0484828501612bcb565b91505092915050565b600073ffffffffffffffffffffffffffffffffffffffff82169050919050565b6000612c3882612c0d565b9050919050565b612c4881612c2d565b82525050565b6000602082019050612c636000830184612c3f565b92915050565b612c7281612c2d565b8114612c7d57600080fd5b50565b600081359050612c8f81612c69565b92915050565b60008060408385031215612cac57612cab612a33565b5b6000612cba85828601612c80565b9250506020612ccb85828601612bcb565b9150509250929050565b600081519050919050565b600082825260208201905092915050565b6000819050602082019050919050565b612d0a81612baa565b82525050565b6000612d1b82612c0d565b9050919050565b612d2b81612d10565b82525050565b612d3a81612ac2565b82525050565b60c082016000820151612d566000850182612d01565b506020820151612d696020850182612d22565b506040820151612d7c6040850182612d22565b506060820151612d8f6060850182612d01565b506080820151612da26080850182612d31565b5060a0820151612db560a0850182612d31565b50505050565b6000612dc78383612d40565b60c08301905092915050565b6000602082019050919050565b6000612deb82612cd5565b612df58185612ce0565b9350612e0083612cf1565b8060005b83811015612e31578151612e188882612dbb565b9750612e2383612dd3565b925050600181019050612e04565b5085935050505092915050565b60006020820190508181036000830152612e588184612de0565b905092915050565b600080600060608486031215612e7957612e78612a33565b5b6000612e8786828701612c80565b9350506020612e9886828701612c80565b9250506040612ea986828701612bcb565b9150509250925092565b612ebc81612baa565b82525050565b6000602082019050612ed76000830184612eb3565b92915050565b600060208284031215612ef357612ef2612a33565b5b6000612f0184828501612c80565b91505092915050565b600080fd5b600080fd5b7f4e487b7100000000000000000000000000000000000000000000000000000000600052604160045260246000fd5b612f4c82612b3e565b810181811067ffffffffffffffff82111715612f6b57612f6a612f14565b5b80604052505050565b6000612f7e612a29565b9050612f8a8282612f43565b919050565b600067ffffffffffffffff821115612faa57612fa9612f14565b5b612fb382612b3e565b9050602081019050919050565b82818337600083830152505050565b6000612fe2612fdd84612f8f565b612f74565b905082815260208101848484011115612ffe57612ffd612f0f565b5b613009848285612fc0565b509392505050565b600082601f83011261302657613025612f0a565b5b8135613036848260208601612fcf565b91505092915050565b6000806040838503121561305657613055612a33565b5b600083013567ffffffffffffffff81111561307457613073612a38565b5b61308085828601613011565b925050602061309185828601612bcb565b9150509250929050565b600080604083850312156130b2576130b1612a33565b5b60006130c085828601612bcb565b92505060206130d185828601612bcb565b9150509250929050565b60c0820160008201516130f16000850182612d01565b5060208201516131046020850182612d22565b5060408201516131176040850182612d22565b50606082015161312a6060850182612d01565b50608082015161313d6080850182612d31565b5060a082015161315060a0850182612d31565b50505050565b600060c08201905061316b60008301846130db565b92915050565b61317a81612ac2565b811461318557600080fd5b50565b60008135905061319781613171565b92915050565b600080604083850312156131b4576131b3612a33565b5b60006131c285828601612c80565b92505060206131d385828601613188565b9150509250929050565b600067ffffffffffffffff8211156131f8576131f7612f14565b5b61320182612b3e565b9050602081019050919050565b600061322161321c846131dd565b612f74565b90508281526020810184848401111561323d5761323c612f0f565b5b613248848285612fc0565b509392505050565b600082601f83011261326557613264612f0a565b5b813561327584826020860161320e565b91505092915050565b6000806000806080858703121561329857613297612a33565b5b60006132a687828801612c80565b94505060206132b787828801612c80565b93505060406132c887828801612bcb565b925050606085013567ffffffffffffffff8111156132e9576132e8612a38565b5b6132f587828801613250565b91505092959194509250565b6000806040838503121561331857613317612a33565b5b600061332685828601612c80565b925050602061333785828601612c80565b9150509250929050565b7f4e487b7100000000000000000000000000000000000000000000000000000000600052602260045260246000fd5b6000600282049050600182168061338857607f821691505b60208210810361339b5761339a613341565b5b50919050565b7f4552433732313a20617070726f76616c20746f2063757272656e74206f776e6560008201527f7200000000000000000000000000000000000000000000000000000000000000602082015250565b60006133fd602183612b03565b9150613408826133a1565b604082019050919050565b6000602082019050818103600083015261342c816133f0565b9050919050565b7f4552433732313a20617070726f76652063616c6c6572206973206e6f7420746f60008201527f6b656e206f776e6572206f7220617070726f76656420666f7220616c6c000000602082015250565b600061348f603d83612b03565b915061349a82613433565b604082019050919050565b600060208201905081810360008301526134be81613482565b9050919050565b7f4f6e6c7920746865206f776e6572206f66204e46542063616e20756e6c69737460008201527f2069740000000000000000000000000000000000000000000000000000000000602082015250565b6000613521602383612b03565b915061352c826134c5565b604082019050919050565b6000602082019050818103600083015261355081613514565b9050919050565b7f54686973204e4654206973206e6f7420796574206c6973746564206f6e20746860008201527f65206d61726b6574706c61636500000000000000000000000000000000000000602082015250565b60006135b3602d83612b03565b91506135be82613557565b604082019050919050565b600060208201905081810360008301526135e2816135a6565b9050919050565b7f4e487b7100000000000000000000000000000000000000000000000000000000600052601160045260246000fd5b600061362382612baa565b915061362e83612baa565b9250828201905080821115613646576136456135e9565b5b92915050565b600061365782612baa565b91507fffffffffffffffffffffffffffffffffffffffffffffffffffffffffffffffff8203613689576136886135e9565b5b600182019050919050565b7f4e487b7100000000000000000000000000000000000000000000000000000000600052603260045260246000fd5b7f4552433732313a2063616c6c6572206973206e6f7420746f6b656e206f776e6560008201527f72206f7220617070726f76656400000000000000000000000000000000000000602082015250565b600061371f602d83612b03565b915061372a826136c3565b604082019050919050565b6000602082019050818103600083015261374e81613712565b9050919050565b7f506c656173652073656e6420656e6f7567682066756e647320746f207075726360008201527f6861736520746865204e46540000000000000000000000000000000000000000602082015250565b60006137b1602c83612b03565b91506137bc82613755565b604082019050919050565b600060208201905081810360008301526137e0816137a4565b9050919050565b7f4f776e657220686173206e6f74206c69737465642074686973204e4654000000600082015250565b600061381d601d83612b03565b9150613828826137e7565b602082019050919050565b6000602082019050818103600083015261384c81613810565b9050919050565b7f4552433732313a20696e76616c696420746f6b656e2049440000000000000000600082015250565b6000613889601883612b03565b915061389482613853565b602082019050919050565b600060208201905081810360008301526138b88161387c565b9050919050565b7f4552433732313a2061646472657373207a65726f206973206e6f74206120766160008201527f6c6964206f776e65720000000000000000000000000000000000000000000000602082015250565b600061391b602983612b03565b9150613926826138bf565b604082019050919050565b6000602082019050818103600083015261394a8161390e565b9050919050565b7f496e73756666696369656e742066756e647320696e206f7264657220746f206c60008201527f69737420796f7572204e46540000000000000000000000000000000000000000602082015250565b60006139ad602c83612b03565b91506139b882613951565b604082019050919050565b600060208201905081810360008301526139dc816139a0565b9050919050565b7f456e7465722076616c6964205072696365000000000000000000000000000000600082015250565b6000613a19601183612b03565b9150613a24826139e3565b602082019050919050565b60006020820190508181036000830152613a4881613a0c565b9050919050565b7f4f6e6c79206f776e65722063616e207570646174652074686520706c6174666f60008201527f726d206665650000000000000000000000000000000000000000000000000000602082015250565b6000613aab602683612b03565b9150613ab682613a4f565b604082019050919050565b60006020820190508181036000830152613ada81613a9e565b9050919050565b600081905092915050565b6000613af782612af8565b613b018185613ae1565b9350613b11818560208601612b14565b80840191505092915050565b6000613b298285613aec565b9150613b358284613aec565b91508190509392505050565b7f4552433732313a207472616e736665722066726f6d20696e636f72726563742060008201527f6f776e6572000000000000000000000000000000000000000000000000000000602082015250565b6000613b9d602583612b03565b9150613ba882613b41565b604082019050919050565b60006020820190508181036000830152613bcc81613b90565b9050919050565b7f4552433732313a207472616e7366657220746f20746865207a65726f2061646460008201527f7265737300000000000000000000000000000000000000000000000000000000602082015250565b6000613c2f602483612b03565b9150613c3a82613bd3565b604082019050919050565b60006020820190508181036000830152613c5e81613c22565b9050919050565b7f45524337323155524953746f726167653a2055524920736574206f66206e6f6e60008201527f6578697374656e7420746f6b656e000000000000000000000000000000000000602082015250565b6000613cc1602e83612b03565b9150613ccc82613c65565b604082019050919050565b60006020820190508181036000830152613cf081613cb4565b9050919050565b60008190508160005260206000209050919050565b60006020601f8301049050919050565b600082821b905092915050565b600060088302613d597fffffffffffffffffffffffffffffffffffffffffffffffffffffffffffffffff82613d1c565b613d638683613d1c565b95508019841693508086168417925050509392505050565b6000819050919050565b6000613da0613d9b613d9684612baa565b613d7b565b612baa565b9050919050565b6000819050919050565b613dba83613d85565b613dce613dc682613da7565b848454613d29565b825550505050565b600090565b613de3613dd6565b613dee818484613db1565b505050565b5b81811015613e1257613e07600082613ddb565b600181019050613df4565b5050565b601f821115613e5757613e2881613cf7565b613e3184613d0c565b81016020851015613e40578190505b613e54613e4c85613d0c565b830182613df3565b50505b505050565b600082821c905092915050565b6000613e7a60001984600802613e5c565b1980831691505092915050565b6000613e938383613e69565b9150826002028217905092915050565b613eac82612af8565b67ffffffffffffffff811115613ec557613ec4612f14565b5b613ecf8254613370565b613eda828285613e16565b600060209050601f831160018114613f0d5760008415613efb578287015190505b613f058582613e87565b865550613f6d565b601f198416613f1b86613cf7565b60005b82811015613f4357848901518255600182019150602085019450602081019050613f1e565b86831015613f605784890151613f5c601f891682613e69565b8355505b6001600288020188555050505b505050505050565b7f4552433732313a20617070726f766520746f2063616c6c657200000000000000600082015250565b6000613fab601983612b03565b9150613fb682613f75565b602082019050919050565b60006020820190508181036000830152613fda81613f9e565b9050919050565b7f4552433732313a207472616e7366657220746f206e6f6e20455243373231526560008201527f63656976657220696d706c656d656e7465720000000000000000000000000000602082015250565b600061403d603283612b03565b915061404882613fe1565b604082019050919050565b6000602082019050818103600083015261406c81614030565b9050919050565b600081519050919050565b600082825260208201905092915050565b600061409a82614073565b6140a4818561407e565b93506140b4818560208601612b14565b6140bd81612b3e565b840191505092915050565b60006080820190506140dd6000830187612c3f565b6140ea6020830186612c3f565b6140f76040830185612eb3565b8181036060830152614109818461408f565b905095945050505050565b60008151905061412381612a69565b92915050565b60006020828403121561413f5761413e612a33565b5b600061414d84828501614114565b91505092915050565b7f4e487b7100000000000000000000000000000000000000000000000000000000600052601260045260246000fd5b7f4552433732313a206d696e7420746f20746865207a65726f2061646472657373600082015250565b60006141bb602083612b03565b91506141c682614185565b602082019050919050565b600060208201905081810360008301526141ea816141ae565b9050919050565b7f4552433732313a20746f6b656e20616c7265616479206d696e74656400000000600082015250565b6000614227601c83612b03565b9150614232826141f1565b602082019050919050565b600060208201905081810360008301526142568161421a565b905091905056fea26469706673582212201846083983248f8806b4db43b83a64c0845cde046854e0186d8fcf7b5cb7f58d64736f6c63430008120033",
  "linkReferences": {},
  "deployedLinkReferences": {}
}